:0600000002006B02194B27
:03000B00021A5482
:0300130002199E31
:01001B0032B2
:030023000218B30D
:03002B00020FD9E8
:01003300329A
:03003B000219F1B6
:030043000218742C
:01004B003282
:030053000218FF91
:01005B003272
:03006300021F7306
:03006600021A4536
:02006900E4733E
:0D006B0075814212230BE5826003020066DE
:100078007922E94400601B7A019023F678EE75A096
:1000880001E493F2A308B8000205A0D9F4DAF275E6
:02009800A0FFC7
:06009A00E478FFF6D8FD3A
:1000A0007800E84400600A790A75A001E4F309D8F1
:1000B000FC78E4E84400600C790190010AE4F0A3C4
:0400C000D8FCD9FA95
:0300C400751500AF
:1000C800752300752500752A00752B00752C0075A1
:0200D8003200F4
:0300DA0075160A8E
:0E00DE007808E4F608F608F608F6780C7600C6
:0200EC00C20848
:0200EE00C20945
:0300F000020066A5
:1000F40012041E902580E4F5F0121C7B43970853EC
:1001040096F7C2B3900196E4F053931F53921F7570
:10011400FC0075FA005393FD5392FDD291D2BD2297
:1001240012130F9001F4E0FF9001FFE0FEEFB5061B
:1001340002802C9001FFE0FE5306017D00BE0117F2
:10014400BD0014EF20E010C2914393029003E81223
:100154001C075393FDD2919001FFE09001F4F0123B
:1001640003BBE58260061203C2121D50121DE3E5B3
:10017400826009121DF91202741202559001F5E011
:10018400FCA3E0FDA3E0FEA3E0FF9001F0E0F8A3F0
:10019400E0F9A3E0FAA3E0FBE8B5040DE9B505092D
:1001A400EAB50605EBB50701229001F0ECF0EDA3EA
:1001B400F0EEA3F0EFA3F08C828D838EF0EF021C9F
:0101C4007BBF
:1001C6009001FCE4F09001FEF0227F00C3E5DB9491
:1001D60007920040067D077E008004ADDB7E008F1F
:1001E600037C00C3EB9DEC64808EF063F08095F099
:1001F6005017EF24F5FDE43401FE8F82758300E08D
:10020600FC8D828E83F00F80C3227F008F057E00D7
:10021600C3ED9407EE940050188F057E00EF24F589
:10022600F582E43401F583E0FC8D828E83F00F8045
:10023600DB90000722900002E09001FFF0E02275BB
:100246001D009001FFE06003751D01851D8222904F
:1002560001FEE07018900200E0FFE060108FD753B7
:10026600D6FC9001FE7401F0900200E4F022AF8209
:100276009001FFE060617D007E009001FEE0602459
:100286000DBD00010E900005C007C006C005121C7A
:1002960007D005D006D007C3ED9450EE94C340DADC
:1002A60075820022900200E0FEBE400050207D00D4
:1002B60074402EFEE43DFDEE2454F582ED3400F547
:1002C60083EFF0900200E02401F075820122C0075E
:1002D600120255D007809F75820022AFF0AE83E5EB
:1002E6008290010CF0EEA3F0EFA3F09001FFE07016
:1002F600030203B790010AE0FEA3E0FFC3E49E7485
:10030600808FF063F08095F040030203B77E007F94
:10031600009001FEE060200EBE00010F900005C0B7
:1003260007C006121C07D006D007C3EE9450EF9400
:10033600C340DE7582002290010CE0FDA3E0FEA31F
:10034600E0FF90010AE0FBA3E0FCC3E49B74808C11
:10035600F063F08095F0509C900200E0FABA4000FD
:1003660050498A017A00744029F9E43AFAE924549A
:10037600F9EA3400FA8D828E838FF0122174F8A385
:10038600AD82AE8390010CEDF0EEA3F0EFA3F08901
:10039600828A83E8F0900200E02401F01BBBFF0193
:1003A6001C90010AEBF0ECA3F0809F1202550202AA
:1003B600FA758200229001FCE0F582229001FCE0B1
:1003C6007003F582229001FDE02454F582E43400A6
:1003D600F583E0FF9001FDE004F09001FCE014F0ED
:1003E600E0700353D6F38F822275D70074FC55D67E
:1003F6004402F5D69001FEE4F02230DE199001FCAD
:10040600E5DBF09001FDE4F09001FCE0600874F398
:0704160055D64408F5D6227B
:10041E00120AFD120B27120B1675DD0075D300752F
:06042E00D50075D7002285
:10043400AFDBBF08028003020909900007E0FE7FDA
:1004440000900006E0FD7C004FF510EC4EF5117FA6
:1004540000900001E0F5128F15900000E0FE54605A
:100464007003020541900000E0FE5306607D00BE6B
:100474002006BD000302050BBE4005BD000280033B
:1004840002053CE4B51202805B7401B5120280548B
:100494007402B51202804D7403B5120280467404CE
:1004A400B51202803F7405B5120280387406B51285
:1004B4000280317407B51202802A7408B5120280D2
:1004C400237409B51202801C740AB51202801574D3
:1004D4000BB51202800E740CB512028007743CB581
:1004E4001220800F121532AD82AE838D077515016F
:1004F40002090B75150112114DAD82AE838D0702F1
:10050400090B7FFF02090B7420B5120302090B7457
:1005140021B5120280077422B51218800C12021041
:10052400AD82AE838D0702090BC00712023BD007D0
:1005340002090B7FFF02090B7FFF02090BE512245E
:10054400F45003020905E512240B83F582E5122415
:100554001083F583E473E71505D505DF7205EC090F
:100564000B0B080709070906050906070909900086
:1005740003E0FEBE0102800DBE0202801DBE030226
:10058400802D02066F75130F751423902321E493B5
:10059400FD740193FE8D07020671751323751423F0
:1005A40090237EE493FD740193FE8D0702067190FF
:1005B4000002E07015751380751423902384E4936E
:1005C400FD740193FE8D07020671900002E0FEBEE9
:1005D40001157513E67514239023F4E493FD740157
:1005E40093FE8D07020671900002E0FEBE021475B0
:1005F40013987514239023AEE493FD740193FE8D38
:1006040007806A900002E0FEBE0314751386751419
:1006140023902396E493FD740193FE8D07804E90FE
:100624000002E0FEBE04147513B07514239023CCAD
:10063400E493FD740193FE8D078032900002E0FE86
:10064400BE05147513CE7514239023E4E493FD744E
:100654000193FE8D078016751386751423902396D7
:10066400E493FD740193FE8D0780027FFFBFFF03B7
:1006740002090B8F057E00C3ED9510EE9511500411
:100684008D108E11AD10AE11C3ED9408EE9400924E
:100694000140067B087C008004AB10AC118B077C06
:1006A40000C3EC9F50198C027B00EC2513F582E407
:1006B4003514F583E493F98A828B83F00C80E28FFE
:1006C400037C00EDC39BFDEE9CFE8D108E11EF2587
:1006D40013F513E43514F51402090B900002E0FE3F
:1006E4008E1075110002090B90010FE0900000F0CC
:1006F400AD10AE11C3ED9401EE9400500302090B4A
:100704007F0102090B900002E0FE90010FF0020944
:100714000B900000E0541F702F900003E0FD7E005A
:10072400900002E0FC7B004206EB4205BE0114BDD2
:10073400001190232AE493FE30E50302090B7FFFA6
:1007440002090B7FFF02090B900000E0FE53061F15
:100754007D00BE0277BD0074900004E0FEBE01027D
:10076400805FBE02028049BE03028033BE04028061
:100774001DBE81028040BE8202802ABE8302801494
:10078400BE844474BC55DE4402F5DE02090B53DE1C
:100794007302090B74BC55D64402F5D602090B53F7
:1007A400D67302090B74BC55D44402F5D402090B68
:1007B40053D47302090B74BC55D24402F5D2020916
:1007C4000B53D27302090B7FFF02090B7FFF02094F
:1007D4000B900000E0541F702F900003E0FD7E009A
:1007E400900002E0FC7B004206EB4205BE0114BD12
:1007F400001190232AE493FE30E50302090B7FFFE6
:1008040002090B7FFF02090B900000E0FE53061F54
:100814007D00BE0205BD000280030208E3900003D0
:10082400E0FD7E00900002E0FC7B004206EB420506
:10083400EE4D60030208DF900005E0FD7E009000AD
:1008440004E0FC7B004206EB4205BE0106BD00034A
:100854000208D3BE0205BD00028060BE0305BD00D0
:10086400028044BE0405BD00028028BE8105BD008F
:10087400028052BE8205BD00028036BE8305BD00E3
:1008840002801ABE8451BD004E74BF55DE4403F588
:10089400DE8074747F55DE440CF5DE806A74BF55C7
:1008A400D64403F5D68060747F55D6440CF5D680C3
:1008B4005674BF55D44403F5D4804C747F55D44446
:1008C4000CF5D4804274BF55D24403F5D2803874F9
:1008D4007F55D2440CF5D27FFF802C7FFF80287F88
:1008E400FF8024900000E4F0900001F0AD10AE1100
:1008F400C3ED9402EE940040047F02800AAF10809E
:10090400067FFF80027FFFBFFF077512FF75DCCFF4
:1009140022EF24F740068FDD75DCC02275DD0075FB
:10092400DCC022E51530E0227409B51202800E7491
:100934000BB512028007743CB512088003021740FD
:1009440002120075DD0075DC02227405B512028006
:100954005D7406B51266AE10AF11C3EE9408EF9441
:1009640000920240067C087D008004AC10AD117D2D
:1009740000C3ED9C50198D027B00ED2513F582E434
:100984003514F583E493F98A828B83F00D80E28C2D
:10099400037D00EEC39BFEEF9DFF8E108F11EC25AF
:1009A40013F513E43514F5148CDD63DC4022E5E320
:1009B4005480FFE5104FF5E375DC022275DD007508
:1009C400DC0222E51530E022740AB51202800E74AE
:1009D4000CB512028007743CB51208800302179705
:1009E40002125B75DD0085DCDC227420B5120D304B
:1009F400DE101201D075DD0085DCDC2275DD0043DC
:100A0400DC022275D30074FC55D24402F5D222755F
:100A1400D50074FC55D44402F5D42220D903020A2B
:100A2400D0E5D9540FFFADD95305307E00BD000584
:100A3400BE0002801CBD1005BE00028037BD20052B
:100A4400BE00028044BD3006BE0003020AB6020A9C
:100A5400CEEF24FB5003020ACEEF2F900A6373807B
:100A64000880678065800880611209C7020ACE1277
:100A740004008056EF24FB4051EF2F900A837380CB
:100A8400498047804580438041EF24FB403CEF2F61
:100A9400900A98738008800B800E8011802C1209B4
:100AA400278027120A078022120A13801D1203EFDF
:100AB4008018EF24FB4013EF2F900AC17380088045
:100AC40009800780058003120434C2D930D81D750B
:100AD400DC0275D21275D41275D61275E300C2DA2F
:100AE400C2D9C2D890010FE4F01201C610DA012273
:100AF400E5DA20E20375D8FF2275E20053E27F4372
:100B0400E22975E30053E2BF53D1FB75D18043D191
:100B1400012243E10443E10243E10143D81FD2EA45
:100B2400D2AF227E407F008EEE8FEF7E4A7F008E12
:100B3400E48FE57E547F008EE68FE775EBC475D2B3
:100B44001275D41275D6127E007F008EEC8FED756F
:060B5400EA4075DC0222FC
:100B5A00C2CAC2CDC2CCC2C9D2CB43C94053C9F35F
:100B6A0043C904D2C875CC0075CD00C2CEC2AF004D
:100B7A00758301758210780079007A007B007C0009
:100B8A007D007F005393FDD2CAE5CDC394FE504F3A
:100B9A00E59030E1F4C2CEC2CF740F20CE0E30CF32
:100BAA00FAC2CF1470F5020BE930CE19AACAABCB40
:100BBA00C2CEEAC39CF0EB9DA3F0A30FEF24C06062
:100BCA001EEAFCEBFDA9CDA8CCE9B5CDF8E8C39C9B
:100BDA00F5F0E99DFEE5F0C394E8EE94FD40CAEF16
:100BEA0023F524D2AFC2CA900192E4F0A3F0A3F095
:100BFA00A3F074EE25244003020C97E52424EEFFAB
:100C0A00C3EF95245049EF2410FDE43401FE8D8290
:100C1A008E83E0FDA3E0FE900192E0F533A3E0F5B8
:100C2A0034A3E0F535A3E0F5368D008E047D007E11
:100C3A0000900192E82533F0EC3534A3F0ED353518
:100C4A00A3F0EE3536A3F08F0674022EFF80B19022
:100C5A000192E0FCA3E0FDA3E0FEA3E0FF7409C05B
:100C6A00E0E4C0E0C0E0C0E08C828D838EF0EF1239
:100C7A002072AC82AD83E58124FCF5818C268D2718
:100C8A00AE26AF27C3E49EF528E49FF5297F00C36B
:100C9A00EF9524400122EF2410FDE43401FE8D82F9
:100CAA008E83E0FBA3E0FCC007C006C005C003C0FA
:100CBA0004900021121E47AB82AC83158115818BEB
:100CCA00018C02E4FBFC7420C0E0E4C0E0C0E0C098
:100CDA00E089828A838BF0EC121F75A982AA83AB02
:100CEA00F0FCE58124FCF581E924F8F9EA34FFFAFD
:100CFA00EB34FFFBEC34FFFC7406C0E0E4C0E0C058
:100D0A00E0C0E089828A838BF0EC121F75A982AA5F
:100D1A0083ABF0FCE58124FCF581D005D006D00731
:100D2A008D828E83E9F0EAA3F08F0674022EFF0209
:100D3A000C99C2CAC2CDC2CCC2C9C2CB43C940C235
:100D4A00C88528CA8529CBD291439302C2AFC2CFA4
:100D5A00C2CED2CA75CC0075CDFF10CF0280FB7F00
:100D6A0000C3EF95244003020E0AEF2410F582E433
:100D7A003401F583E0FE10CF0280FBC29110CF024E
:100D8A0080FBEE30E004D2918002C29110CF028043
:100D9A00FBEE30E104D2918002C29110CF0280FBB7
:100DAA00EE30E204D2918002C29110CF0280FBEEB3
:100DBA0030E304D2918002C29110CF0280FBEE3060
:100DCA00E404D2918002C29110CF0280FBEE30E59A
:100DDA0004D2918002C29110CF0280FBEE30E60469
:100DEA00D2918002C29110CF0280FBEE30E704D28A
:100DFA00918002C29110CF0280FBD2910F020D6B3B
:100E0A005393FDD291D2AFC2CA22752400C2CAC27C
:100E1A00CDC2CCC2C9C2CB43C940C2C8AE26E5279F
:100E2A00C313CE13CEFFC3E49EF5CAE49FF5CB539A
:100E3A0093FDC2AFC2CFC2CED2CA75CC0075CD0067
:100E4A00C2CF7F0030910630CFFA020F24C2CFC240
:100E5A00CAE5CA240AF5CCE5CB3400F5CDC2CFD217
:100E6A00CA10CF0280FB10CF0280FB10CF0280FB9A
:100E7A0030910343070110CF0280FB10CF0280FBA1
:100E8A0030910343070210CF0280FB10CF0280FB90
:100E9A0030910343070410CF0280FB10CF0280FB7E
:100EAA0030910343070810CF0280FB10CF0280FB6A
:100EBA0030910343071010CF0280FB10CF0280FB52
:100ECA0030910343072010CF0280FB10CF0280FB32
:100EDA0030910343074010CF0280FB10CF0280FB02
:100EEA0030910343078010CF0280FBE5242410F5DC
:100EFA0082E43401F583EFF0E52404F52410CF02EF
:100F0A0080FBC2CFC2CA74FFC39526F5CC74FF9585
:100F1A0027F5CDC2CFD2CA020E4CD2AF2290011011
:100F2A00E4F07524015393FDC2CAD2CBC2CFC2CE1C
:100F3A00D2AD22C2CAC2CDC2CCC2C9C2CB43C940F9
:100F4A00C2C88528CA8529CBAE26E527C313CE1386
:100F5A00CEFF748EC39EFEE49FFFAC26AD27EEC380
:100F6A009CF530EF9DF531D291439302C2CFC2CEA8
:100F7A00752D00752F00D2CA75CC0075CDFFD2AD84
:100F8A0022752400C2CAC2CDC2CCC2C953C9F3D287
:100F9A00CB43C940C2C88528CA8529CB5393FD755E
:100FAA002DFF752F00C2CFC2CED2CA75CC0075CD27
:100FBA0000C2CFD2AD22752C04020F3D752C14024B
:100FCA000F3D22752C0C020F3D752C08020F27C00D
:100FDA00E0C082C083C0D010CF03021107E52C20E5
:100FEA00E2030210ADE52D6003021084D291E52FD1
:100FFA00B5246E5393FDC2AD532CFBE52C700675D8
:10100A002C80021144E52C30E318900110E4F075AD
:10101A0024015393FDC2CAD2CBC2CFC2CED2AD02F3
:10102A001144E52C20E403021144752400C2CAC20B
:10103A00CDC2CCC2C953C9F3D2CB43C940C2C885B9
:10104A0028CA8529CB5393FD752DFF752F00C2CF72
:10105A00C2CED2CA75CC0075CD00C2CFD2AD0211B4
:10106A0044E52F2410F582E43401F583E0F52EE5FA
:10107A002F04F52F752D09021144E52D24F7401987
:10108A00E52E30E004D2918002C291E52EC313F519
:10109A002EE52D14F52D021144C291E52D14F52DDE
:1010AA00021144E52C20E40302114474FFB52D1407
:1010BA00C2CBC2AD532CEFE52C6003021144752C50
:1010CA008002114474F8252D500DD2CB85CACC85E7
:1010DA00CBCD752DFF8063A291E52E13F52E7407F3
:1010EA00B52D13E5242410F582E43401F583E52EA9
:1010FA00F0E52404F524E52D04F52D803D10CE02FB
:10110A008038E52C30E3149001107401F0532CF769
:10111A00E52C7003752C80C2CBC2ADE52C30E418E7
:10112A00C2CB752D00C2CFC2CA8530CC8531CD75F0
:10113A002E00C2CFD2CA8002C2ADD0D0D083D08214
:10114A00D0E032752A00E5256008E4F51DF51E0297
:10115A0011F9900000E0FD30E758C3E524940892A5
:10116A000340067C087D008004AC247D008C1D8D24
:10117A001E7D008D037C00C3EB951DEC951E502649
:10118A008D037C008D017A00A82A7F00E829F9EFF7
:10119A003AFAE92410F582EA3401F583E0FF8B82FA
:1011AA008C83F00D80CDE51DFE252AF52A43150214
:1011BA00803D900002E0F525900006E0F524E4F574
:1011CA001DF51EE52470057523148023E524247F6C
:1011DA005003752480C3E5249408920340067E08D0
:1011EA007F008004AE247F008E1D8F1E4315048568
:1011FA001D82851E8322E51530E14FE524C3952A19
:10120A00FFBF0800920440067D087E0080048F0517
:10121A007E007F00C3EF9D50268F047E008F027BE5
:10122A0000A82A7900E82AFAE93BFBEA2410F582A9
:10123A00EB3401F583E0FB8C828E83F00F80D5EDD1
:10124A00252AF52A8DDD63DC402275DD0075DC0276
:10125A0022E51530E259E524C3952AFF24F7400513
:10126A0075231480027F087E00C3EE9F50258E04EA
:10127A007D00AA2A7B00EA2CFCEB3DFDEC2410FC45
:10128A00ED3401FD8E82758300E0FB8C828D83F044
:10129A000E80D6EF252AF52AC3E52A952450068F13
:1012AA00067F0080047E007F008EDD63DC8022756D
:1012BA00DD0085DCDC22900201E0FF600FBF020244
:1012CA00800BBF0302801BBF043A802F22E52560F2
:1012DA0001227525217524127523149002017403C5
:1012EA00F022E52370157525047524019001107408
:1012FA0006F07523149002017404F0E5237005903A
:10130A000201E4F0221212C0E52B7003021422E556
:10131A002B30E703021422E52B30E01FE532700779
:10132A00C291439302800F9003E8121C07749C2514
:10133A00325003532BFE0532021417E52B30E11706
:10134A00900110E0900190F0900111E0FF9001915E
:10135A00F0532BFD021417E52B30E270E52B30E336
:10136A0018E52C7006120FCD021417E52C30E20393
:10137A00021417532BF3021417E52B30E41AE52C49
:10138A007006120FC6021417E52C20E70302141781
:10139A00752C00532BEB8075E52B30E519E52C7085
:1013AA0005120FC08067E52C20E262120B5A752CD9
:1013BA0000532BDB8057E52C7005120FC0804EE5D9
:1013CA002C30E749752C00532BFB8041E52B30E389
:1013DA0016E52C7005120FD38033E52C30E72E75F5
:1013EA002C00532BF78026E52B30E416E52C7005EC
:1013FA00120FC68018E52C30E713752C00532BEF1B
:10140A00800BE52B30E506120B5A532BDFE52B54E4
:10141A003F600122752B8022AF23BF000122BF1437
:10142A0041E52B30E71D752300752500752B0090CB
:10143A000196E053E0FDF0900196E06003D2B322FA
:10144A00C2B322E4F532F52C747F5525F52B9001B1
:10145A0096E043E002F0900196E06003D2B322C224
:06146A00B32275230022ED
:10147000AFF0AE83E5829001A6F0EEA3F0EFA3F00B
:101480009001A3E0FDA3E0FEA3E0FF7C009001A695
:10149000E0F9A3E0FAA3E0FB89828A838BF01221B2
:1014A00074F5F9A3A982AA839001A6E9F0EAA3F052
:1014B000EBA3F030FBFD8D828E838FF0E5F9121ED9
:1014C0002CA3AD82AE830CBC040040CC9001A6E9F5
:1014D000F0EAA3F0EBA3F022900197E0FEA3E0FF77
:1014E00090019774012EF0E43FA3F0E51930E70670
:1014F000EE2EFEEF33FF90019BE519F0EE30E00891
:1015000090019BE04408FDF0EFC313FC90019CECBC
:10151000F0EFC313CE13CE90019DEEF09001A374B3
:101520009FF07401A3F0E4A3F090019B75F000021A
:1015300014707E007F00E51224F3500302173BE590
:1015400012240B83F582E512241183F583E4736979
:101550007682828289DD11547DF17DF11515151594
:101560001515151616161616169000017421F07E24
:10157000087F0002173B900000E4F07E017F00022C
:10158000173B7E007F0002173B900002E0F51674C7
:10159000F52516400BE516FD75F018A4F5FB800344
:1015A00075FBFF900196E043E001F0900196E0604A
:1015B00004D2B38002C2B3900004E04393A075FA52
:1015C00060439302C2917E007F00900201E0FDBD66
:1015D000010302173B900201E4F002173B900196D1
:1015E000E053E0FEF0900196E06004D2B38002C2C6
:1015F000B353931F75FA005393FDD291900201E00B
:10160000FDBD01069002017402F07E007F0002170A
:101610003B900002E0FCA3E0FD9001A37400F07495
:1016200000A3F0E4A3F090000275F000C005C00430
:10163000121470D004D005BCAC13BD53109000023E
:10164000E0FDBD530280069002017401F07E047F2C
:101650000002173B9001A37400F07400A3F0E4A310
:10166000F090000275F000121470900002E0F5177F
:10167000900003E0F5187E007F0002173B90000405
:10168000E0FCA3E0FD900197ECF0EDA3F07409B548
:10169000120575192080037519A0AC10AD11C3ECAB
:1016A0009408ED9400920540067C087D008004AC0F
:1016B00010AD118C068D077D008D037C00C3EB9E61
:1016C000EC9F5020C007C006C0051214D8D005D02A
:1016D00006D0078D037C009001A2E0FA8B828C83F8
:1016E000F00D80D5E510C39EF510E5119FF5118032
:1016F0004A900004E0FCA3E0FD900197ECF0EDA31C
:10170000F0900002E0FCA3E0FD900199ECF0EDA365
:10171000F0740AB5120575194080037519C0AC1034
:10172000AD11C3EC9408ED9400920540067C087D51
:10173000008004AC10AD118C068D078E828F832241
:10174000AE10AF11C3EE9408EF9400920640067EEF
:10175000087F008004AE10AF117D008D037C00C3B4
:10176000EB9EEC9F5020C007C006C0051214D8D0D5
:1017700005D006D0078D037C009001A2E0FA8B8291
:101780008C83F00D80D5E510C39EF510E5119FF513
:10179000118EDD63DC4022AE10AF11C3EE9408EF72
:1017A0009400920740067E087F008004AE10AF11BF
:1017B0008E1A8F1B7D008D037C00C3EB951AEC9570
:1017C0001B40030218518D82758300E090019EF04A
:1017D000C0051214D8D00590019BE06460F07B0036
:1017E0007C00900199E0F9A3E0FAC3EB99EC9A50E0
:1017F0005C9001A3749FF07401A3F0E4A3F0900146
:101800009B75F000C005C004C003121470D003D053
:1018100004D0059001A2E0FA90019EE0F9EAB5013A
:101820000AEAB517028004EAB51822A916E4C4230F
:1018300054E0C9C423C969C954E0C969FA8B008C52
:1018400007E928F8EA3FFF88038F0480950D021707
:10185000B6E510C3951AF510E511951BF511E510C5
:1018600045116006AE1AAF1B80047E007F008EDD3E
:0418700063DC802293
:10187400C022C0E0C0F0C082C083C007C006C0055B
:10188400C004C003C002C001C000C0D075D00012A3
:101894000A1FD0D0D000D001D002D003D004D0058C
:1018A400D006D007D083D082D0F0D0E0D02232C08E
:1018B40022C0E0C0F0C082C083C007C006C005C01B
:1018C40004C003C002C001C000C0D075D00030986D
:1018D40005121EE5C298309905121F25C299D0D071
:1018E400D000D001D002D003D004D005D006D00758
:1018F400D083D082D0F0D0E0D02232C022C0E0C069
:10190400F0C082C083C007C006C005C004C003C0C5
:1019140002C001C000C0D075D00030C00512227DC5
:10192400C2C030C1051222BDC2C1D0D0D000D00186
:10193400D002D003D004D005D006D007D083D08203
:10194400D0F0D0E0D02232C022C0E0C0F0C082C0CB
:1019540083C007C006C005C004C003C002C001C0E4
:1019640000C0D075D000900208E0FEA3E0FFC007DD
:10197400C0068E828F83120069D006D007D0D0D0E3
:1019840000D001D002D003D004D005D006D007D0B7
:1019940083D082D0F0D0E0D02232C022C0E0C0F0A8
:1019A400C082C083C007C006C005C004C003C00213
:1019B400C001C000C0D075D00090020AE0FEA3E0D0
:1019C400FFC007C0068E828F83120069D006D0073D
:1019D400D0D0D000D001D002D003D004D005D0069E
:1019E400D007D083D082D0F0D0E0D02232C022C041
:1019F400E0C0F0C082C083C007C006C005C004C0F8
:101A040003C002C001C000C0D075D000900202E043
:101A1400FEA3E04E600E900202E0F8A3E0F5838896
:101A240082120069D0D0D000D001D002D003D004FB
:101A3400D005D006D007D083D082D0F0D0E0D02219
:101A440032121C401200F412012480FB7582002221
:101A5400C0D075D00808B8000D09B900090ABA0049
:101A6400050BBB00010CD0D032A2AFC2AFA808A9AD
:101A740009AA0AAB0BAC8A8588F092AF30F51274D0
:101A8400012C600D08B8000909B900050ABA000163
:101A94000BC3EC9406FCE8FEE9FFC003C00275F03A
:101AA40077E8A4F8ADF075F077E9A42DF9E435F002
:101AB400FD75F077EAA42DFAE435F0FD75F077EBC7
:101AC400A42DFBE435F0FDEE29F9EF3AFAD0E03B22
:101AD400FBD0E03DFD75F003ECA4FCE5F0C313FE80
:101AE400EC13FC7F00EC28F8EE39F9EF3AFAEF3BFF
:101AF400FBEF3DFDC3ED13FDEB13FBEA13F5F0E93A
:101B040013F583E813F582EB22A2AFC2AFA808A9AC
:101B140009AA0AAB0BAC0C92AF75F030E8A4A8F09C
:101B240075F030E9A428ADD0F582A8F075F030EA5C
:101B3400A48DD038ADD0F583A8F075F030EBA48D2A
:101B4400D038ADD0F9A8F075F030ECA48DD0388938
:101B5400F02285823785833885F039F53A121A6D7B
:101B640085823B85833C85F03DF53EE53745384528
:101B740039453A700122A837A938AA39AB3A853BCE
:101B84003F853C40853D41853E42E8494A4B60DB08
:101B9400C003C002C001C000121A6DAC82AD83AE96
:101BA400F0FFD000D001D002D003ECC3953FFCED90
:101BB4009540FDEE9541FEEF9542FFC3EC94E8EDB0
:101BC4009403EE9400EF940040A118B8FF0919B9EA
:101BD400FF051ABAFF011B883789388A398B3A7492
:101BE400E8253FF53F74033540F540E43541F541C0
:101BF400E43542F542853F3B85403C85413D854285
:031C04003E808798
:101C0800AE82AF83C374019EE49F40022200BF00EE
:101C180005BE02022200C374039EFE74009FFFBE2D
:101C28000004BF0001220000000000000000000EB8
:101C3800BE00F30FBF00F52275A15575A1AA74F86F
:101C480055B94405F5B975A100901388121C07759C
:101C58009E5D759D0074F055894402F58953C9EF5E
:101C6800758C06C28DD2A9D28CD2AF229001A9E080
:101C7800F58222AC82AD83AEF0FFC004C005C00679
:101C8800C00790680075F0897409122072AC82ADA3
:101C980083AEF0FFE58124FCF581EDC4CCC4540F7C
:101CA8006CCC540FCC6CCCFDEEC454F04DFDEFC49D
:101CB800CEC4540F6ECE540FCE6ECEFF8C028D0361
:101CC800C007C006C005C004740AC0E0E4C0E08ACA
:101CD800828B831221FEAA8215811581D004D0053A
:101CE800D006D007C002740AC0E0E4C0E0C0E0C07B
:101CF800E08C828D838EF0EF122072AC82AD83AEC1
:101D0800F0FFE58124FCF581D002BA0500400D0CF6
:101D1800BC00090DBD00050EBE00010FC29FD29E7A
:101D2800C29DC2CDC2CC438780740F55894420F52B
:101D38008943C9A0C3E49CF58DD28EC299D29CD2A6
:101D4800AC9001A97401F022AF82A2AFE433FEC2C5
:101D5800AF900206E0FD900207E0FCEDB50410200C
:101D6800080DD2088F99EE6002D2AF7582012290D9
:101D78000206E0FD0D53050F7B007C00900207E092
:101D8800FAEDB50235EE6002D2AF0BBB00010C9044
:101D98000005C007C006C005C004C003121C07D058
:101DA80003D004D005D006D0078B018C02C3E99478
:101DB80020EA944E40C675820022900206E024BBB9
:101DC800F582E43401F583EFF0900206EDF0EE6061
:101DD80002D2AF758201222008FD22900204E0247D
:101DE80010FF900205E0FEEFC39EFF53070F8F829E
:101DF80022900204E02410FF900205E0FEEFC39E4B
:101E0800540F601C900205E024ABF582E43401F520
:101E180083E0FF900205E0FE0E740F5EF08F8222D1
:101E28007582002220F71130F6138883A88220F5E6
:101E380009F6A8837583002280FEF280F5F022C09F
:101E48001C85811CC082C083E5812405F581AF1CF7
:101E58000FE51C2403F8A607087600087640E51C61
:101E680024FCFD7E007F40E51C2406F9A81C08869A
:101E780004E51C24FCF886038CF0EBA4F709A7F012
:101E8800E51C240604F98704A81C08860374012DA0
:101E9800FAE43EFE8A828E838FF01221748BF0A4BE
:101EA800FBE51C2403F8740126FDE40836FE0886C9
:101EB800078D828E838FF0122174FDE51C24FCF8B7
:101EC80086078DF0EFA42B2CF7E51C2406F987066E
:0D1ED8000987078E828F83851C81D01C2214
:101EE500900204E0FF7E000FBF00010E7410C0E0F9
:101EF500E4C0E08F828E83122190AE821581158118
:101F0500900205E0FFEEB5070122900204E024AB44
:101F1500F582E43401F583E599F0900204EEF022B0
:101F250030084A900206E0FF900207E0FEEFB50692
:101F350005A208C20822900207E024BBF582E4341A
:101F450001F583E0F599900207E0FF7E000FBF00E1
:101F5500010E7410C0E0E4C0E08F828E83122190E0
:0E1F6500AE82AF8315811581900207EEF02247
:011F7300323B
:101F7500C01C85811CAC82AD83AEF0FFE581240CCD
:101F8500F581EF33E433FB6015A81C08C3E49CF628
:101F9500E49D08F6E49E08F6E49F08F6800EA81C6A
:101FA50008A60408A60508A60608A607A81C08E5AD
:101FB5001C2405F9E6F708E609F708E609F708E637
:101FC50009F7E51C24FAF8080808E633E433FA6053
:101FD50017E51C24FAF8C3E496FC08E496FD08E42A
:101FE50096FE08E496FF8010E51C24FAF88604089E
:101FF5008605088606088607C003C002C004C0051A
:10200500C006C007E51C2405F88682088683088675
:10201500F008E6122072AC82AD83AEF0FFE58124B4
:10202500FCF581D002D003E51C2409F8A60408A616
:102035000508A60608A607EA6B601DE51C2409F835
:10204500C3E496FA08E496FB08E496FE08E496FFD6
:102055008A828B838EF0800FE51C2409F88682081E
:1020650086830886F008E6851C81D01C22C01C8565
:10207500811CC082C083C0F0C0E07A007B007E0076
:102085007F007D20A81C08080808E6235401FCA849
:102095001C08E626F608E633F608E633F608E633C6
:1020A500F6EA2AFAEB33FBEE33FEEF33FFEC60037F
:1020B500430201E51C24FAF8C3EA96EB0896EE08FC
:1020C50096EF0896401CE51C24FAF8EAC396FAEB4D
:1020D5000896FBEE0896FEEF0896FFA81C08E64456
:1020E50001F6DDA0A81C0886820886830886F0080C
:0720F500E6851C81D01C22CE
:1020FC0022AF82BF0200503EEF75F002A42408FD0F
:10210C00740235F0FE9001CBE0FBA3E0FC8D828ED7
:10211C0083EBF0ECA3F0BF00028005BF0118800B2D
:10212C009001CDE024FF9288D2A8229001CDE0FF4F
:10213C0024FF928AD2AA22AF82BF02005028BF008D
:10214C00028005BF01088004C2A88002C2AAEF75F4
:10215C00F002A42408FE740235F0FF8E828F837483
:07216C00FCF07420A3F02237
:1021740020F71430F6148883A88220F507E6A88394
:1021840075830022E280F7E49322E022C01C85815B
:102194001CAE82E583FF33E433FD6009C3E49EFB98
:1021A400E49FFC80048E038F04E51C24FCF808E6FD
:1021B40030E70FE51C24FCF8C3E496FE08E496FF20
:1021C400800AE51C24FCF88606088607C005C006BC
:1021D400C0078B828C831221FEAE82AF83158115DA
:1021E40081D005ED600DC3E49EFCE49FFD8C828DDF
:1021F4008380048E828F83D01C22C01C85811CAEF8
:1022040082AF837D007C00E51C24FCF808E623549F
:1022140001FB702FE51C24FCF8E626F608E633F6ED
:10222400E51C24FCF8C3EE96EF08965011E51C2437
:10223400FCF808E618C313C613C608F680050C8C10
:102244000580C4E51C24FCF8C3EE96EF0896400D07
:10225400E51C24FCF8EEC396FEEF0896FFE51C246B
:10226400FCF808E618C313C613C608F68D041DEC63
:0922740070D18E828F83D01C22F0
:10227D0090020CE0FF7E000FBF00010E7410C0E055
:10228D00E4C0E08F828E83122190AE82158115817C
:10229D0090020DE0FFEEB507012290020CE024CE76
:1022AD00F582E43401F583E5C1F090020CEEF022E5
:1022BD0030094A90020EE0FF90020FE0FEEFB506E6
:1022CD0005A209C2092290020FE024DEF582E43452
:1022DD0001F583E0F5C190020FE0FF7E000FBF0016
:1022ED00010E7410C0E0E4C0E08F828E8312219045
:0E22FD00AE82AF831581158190020FEEF022A4
:04230B0075820022B5
:10230F0012011001EF02010881179F0C0401010255
:10231F000301120009025B0003010080640904003D
:10232F000001FF00000407058103080064080B018A
:10233F000202020105090401000102020105052440
:10234F0000100105240100000424020205240601E7
:10235F00020705820308004009040200020A000078
:10236F000507050302400000070583024000005BDC
:10237F00000403090404001003740069006E00795F
:10238F00004900530050001000160355005300423F
:10239F0000740069006E0079005300500049001668
:1023AF00001C03540069006E00790053005000496F
:1023BF00002000440057006900720065001C0016E1
:1023CF00034300440043002000530065007200697E
:1023DF000061006C0016000E034400650071006977
:0723EF00006E0067000E0004
:0723F600451A8025000000DC
:0C23FD0000E100000000080000000000EB
:0124090000D2
:02240A000000D0
:04240C0000000000CC
:04241000FC20FC2090
:0424140000000000C4
:00000001FF
